{
  "contractName": "Campaign",
  "abi": [
    {
      "inputs": [
        {
          "internalType": "uint256",
          "name": "_minimumContribution",
          "type": "uint256"
        }
      ],
      "stateMutability": "nonpayable",
      "type": "constructor"
    },
    {
      "inputs": [],
      "name": "campaignOwner",
      "outputs": [
        {
          "internalType": "address",
          "name": "",
          "type": "address"
        }
      ],
      "stateMutability": "view",
      "type": "function",
      "constant": true
    },
    {
      "inputs": [],
      "name": "contributorCount",
      "outputs": [
        {
          "internalType": "uint256",
          "name": "",
          "type": "uint256"
        }
      ],
      "stateMutability": "view",
      "type": "function",
      "constant": true
    },
    {
      "inputs": [
        {
          "internalType": "address",
          "name": "",
          "type": "address"
        }
      ],
      "name": "contributors",
      "outputs": [
        {
          "internalType": "bool",
          "name": "",
          "type": "bool"
        }
      ],
      "stateMutability": "view",
      "type": "function",
      "constant": true
    },
    {
      "inputs": [],
      "name": "minimumContribution",
      "outputs": [
        {
          "internalType": "uint256",
          "name": "",
          "type": "uint256"
        }
      ],
      "stateMutability": "view",
      "type": "function",
      "constant": true
    },
    {
      "inputs": [
        {
          "internalType": "uint256",
          "name": "",
          "type": "uint256"
        }
      ],
      "name": "requests",
      "outputs": [
        {
          "internalType": "string",
          "name": "description",
          "type": "string"
        },
        {
          "internalType": "uint256",
          "name": "value",
          "type": "uint256"
        },
        {
          "internalType": "address",
          "name": "recepient",
          "type": "address"
        },
        {
          "internalType": "uint256",
          "name": "approvalCount",
          "type": "uint256"
        },
        {
          "internalType": "bool",
          "name": "complete",
          "type": "bool"
        }
      ],
      "stateMutability": "view",
      "type": "function",
      "constant": true
    },
    {
      "inputs": [],
      "name": "totalContributions",
      "outputs": [
        {
          "internalType": "uint256",
          "name": "",
          "type": "uint256"
        }
      ],
      "stateMutability": "view",
      "type": "function",
      "constant": true
    },
    {
      "inputs": [],
      "name": "contribute",
      "outputs": [],
      "stateMutability": "payable",
      "type": "function",
      "payable": true
    },
    {
      "inputs": [
        {
          "internalType": "string",
          "name": "_description",
          "type": "string"
        },
        {
          "internalType": "uint256",
          "name": "_value",
          "type": "uint256"
        },
        {
          "internalType": "address",
          "name": "_recepient",
          "type": "address"
        }
      ],
      "name": "createRequest",
      "outputs": [],
      "stateMutability": "nonpayable",
      "type": "function"
    },
    {
      "inputs": [
        {
          "internalType": "uint256",
          "name": "_index",
          "type": "uint256"
        }
      ],
      "name": "approveRequest",
      "outputs": [],
      "stateMutability": "nonpayable",
      "type": "function"
    },
    {
      "inputs": [
        {
          "internalType": "uint256",
          "name": "_index",
          "type": "uint256"
        }
      ],
      "name": "finalizeRequest",
      "outputs": [],
      "stateMutability": "nonpayable",
      "type": "function"
    }
  ],
  "bytecode": "0x608060405234801561001057600080fd5b506040516110273803806110278339818101604052602081101561003357600080fd5b8101908080519060200190929190505050336000806101000a81548173ffffffffffffffffffffffffffffffffffffffff021916908373ffffffffffffffffffffffffffffffffffffffff1602179055508060018190555050610f8c8061009b6000396000f3fe6080604052600436106100915760003560e01c8063937e09b111610059578063937e09b114610357578063b17fac2214610382578063d7bb99ba146103d9578063d7d1bbdb146103e3578063ecfd89281461041e57610091565b806303441006146100965780631f6d4942146100d157806337c089231461013a57806381d12c58146101655780638a9cfd5514610265575b600080fd5b3480156100a257600080fd5b506100cf600480360360208110156100b957600080fd5b8101908080359060200190929190505050610449565b005b3480156100dd57600080fd5b50610120600480360360208110156100f457600080fd5b81019080803573ffffffffffffffffffffffffffffffffffffffff169060200190929190505050610737565b604051808215151515815260200191505060405180910390f35b34801561014657600080fd5b5061014f610757565b6040518082815260200191505060405180910390f35b34801561017157600080fd5b5061019e6004803603602081101561018857600080fd5b810190808035906020019092919050505061075d565b60405180806020018681526020018573ffffffffffffffffffffffffffffffffffffffff1673ffffffffffffffffffffffffffffffffffffffff16815260200184815260200183151515158152602001828103825287818151815260200191508051906020019080838360005b8381101561022657808201518184015260208101905061020b565b50505050905090810190601f1680156102535780820380516001836020036101000a031916815260200191505b50965050505050505060405180910390f35b34801561027157600080fd5b506103556004803603606081101561028857600080fd5b81019080803590602001906401000000008111156102a557600080fd5b8201836020820111156102b757600080fd5b803590602001918460018302840111640100000000831117156102d957600080fd5b91908080601f016020809104026020016040519081016040528093929190818152602001838380828437600081840152601f19601f82011690508083019250505050505050919291929080359060200190929190803573ffffffffffffffffffffffffffffffffffffffff169060200190929190505050610865565b005b34801561036357600080fd5b5061036c610a7c565b6040518082815260200191505060405180910390f35b34801561038e57600080fd5b50610397610a82565b604051808273ffffffffffffffffffffffffffffffffffffffff1673ffffffffffffffffffffffffffffffffffffffff16815260200191505060405180910390f35b6103e1610aa7565b005b3480156103ef57600080fd5b5061041c6004803603602081101561040657600080fd5b8101908080359060200190929190505050610b7e565b005b34801561042a57600080fd5b50610433610da1565b6040518082815260200191505060405180910390f35b6000809054906101000a900473ffffffffffffffffffffffffffffffffffffffff1673ffffffffffffffffffffffffffffffffffffffff163373ffffffffffffffffffffffffffffffffffffffff16146104ee576040517f08c379a0000000000000000000000000000000000000000000000000000000008152600401808060200182810382526029815260200180610ed36029913960400191505060405180910390fd5b600581815481106104fb57fe5b906000526020600020906006020160050160009054906101000a900460ff161561058d576040517f08c379a00000000000000000000000000000000000000000000000000000000081526004018080602001828103825260178152602001807f53686f756c64206e6f7420626520636f6d706c6574656400000000000000000081525060200191505060405180910390fd5b60026003548161059957fe5b04600582815481106105a757fe5b9060005260206000209060060201600301541161062c576040517f08c379a000000000000000000000000000000000000000000000000000000000815260040180806020018281038252601a8152602001807f53686f756c642062652067726561746572207468616e2035302500000000000081525060200191505060405180910390fd5b6005818154811061063957fe5b9060005260206000209060060201600101546004600082825403925050819055506005818154811061066757fe5b906000526020600020906006020160020160009054906101000a900473ffffffffffffffffffffffffffffffffffffffff1673ffffffffffffffffffffffffffffffffffffffff166108fc600583815481106106bf57fe5b9060005260206000209060060201600101549081150290604051600060405180830381858888f193505050501580156106fc573d6000803e3d6000fd5b5060016005828154811061070c57fe5b906000526020600020906006020160050160006101000a81548160ff02191690831515021790555050565b60026020528060005260406000206000915054906101000a900460ff1681565b60045481565b6005818154811061076a57fe5b9060005260206000209060060201600091509050806000018054600181600116156101000203166002900480601f0160208091040260200160405190810160405280929190818152602001828054600181600116156101000203166002900480156108165780601f106107eb57610100808354040283529160200191610816565b820191906000526020600020905b8154815290600101906020018083116107f957829003601f168201915b5050505050908060010154908060020160009054906101000a900473ffffffffffffffffffffffffffffffffffffffff16908060030154908060050160009054906101000a900460ff16905085565b6000809054906101000a900473ffffffffffffffffffffffffffffffffffffffff1673ffffffffffffffffffffffffffffffffffffffff163373ffffffffffffffffffffffffffffffffffffffff161461090a576040517f08c379a0000000000000000000000000000000000000000000000000000000008152600401808060200182810382526029815260200180610ed36029913960400191505060405180910390fd5b600454821115610965576040517f08c379a000000000000000000000000000000000000000000000000000000000815260040180806020018281038252603f815260200180610e94603f913960400191505060405180910390fd5b61096d610da7565b6040518060a001604052808581526020018481526020018373ffffffffffffffffffffffffffffffffffffffff16815260200160008152602001600015158152509050600581908060018154018082558091505060019003906000526020600020906006020160009091909190915060008201518160000190805190602001906109f8929190610dee565b506020820151816001015560408201518160020160006101000a81548173ffffffffffffffffffffffffffffffffffffffff021916908373ffffffffffffffffffffffffffffffffffffffff1602179055506060820151816003015560808201518160050160006101000a81548160ff021916908315150217905550505050505050565b60015481565b6000809054906101000a900473ffffffffffffffffffffffffffffffffffffffff1681565b600154341015610b02576040517f08c379a0000000000000000000000000000000000000000000000000000000008152600401808060200182810382526036815260200180610efc6036913960400191505060405180910390fd5b6001600260003373ffffffffffffffffffffffffffffffffffffffff1673ffffffffffffffffffffffffffffffffffffffff16815260200190815260200160002060006101000a81548160ff02191690831515021790555060036000815480929190600101919050555034600460008282540192505081905550565b600260003373ffffffffffffffffffffffffffffffffffffffff1673ffffffffffffffffffffffffffffffffffffffff16815260200190815260200160002060009054906101000a900460ff16610c20576040517f08c379a0000000000000000000000000000000000000000000000000000000008152600401808060200182810382526025815260200180610f326025913960400191505060405180910390fd5b60058181548110610c2d57fe5b906000526020600020906006020160040160003373ffffffffffffffffffffffffffffffffffffffff1673ffffffffffffffffffffffffffffffffffffffff16815260200190815260200160002060009054906101000a900460ff1615610cfc576040517f08c379a000000000000000000000000000000000000000000000000000000000815260040180806020018281038252601d8152602001807f43616e6e6f7420617070726f7665206d6f7265207468616e206f6e636500000081525060200191505060405180910390fd5b600160058281548110610d0b57fe5b906000526020600020906006020160040160003373ffffffffffffffffffffffffffffffffffffffff1673ffffffffffffffffffffffffffffffffffffffff16815260200190815260200160002060006101000a81548160ff02191690831515021790555060058181548110610d7d57fe5b90600052602060002090600602016003016000815480929190600101919050555050565b60035481565b6040518060a001604052806060815260200160008152602001600073ffffffffffffffffffffffffffffffffffffffff168152602001600081526020016000151581525090565b828054600181600116156101000203166002900490600052602060002090601f016020900481019282601f10610e2f57805160ff1916838001178555610e5d565b82800160010185558215610e5d579182015b82811115610e5c578251825591602001919060010190610e41565b5b509050610e6a9190610e6e565b5090565b610e9091905b80821115610e8c576000816000905550600101610e74565b5090565b9056fe53686f756c64206e6f742062652061626c652073656e64206d6f7265207468616e20746f74616c20616d6f756e74206f6620636f6e747269627574696f6e734f6e6c792043616d706169676e204f776e65722063616e2063616c6c207468652066756e6374696f6e53686f756c642062652067726561746572207468616e206f7220657175616c20746f206d696e696d756d436f6e747269627574696f6e53686f756c642062652063616c6c656420627920636f6e7472696275746f7273206f6e6c79a2646970667358221220067364f7cbba0def619a0a9a0b443e1c95a4f119c2115ff5c8e03cd2ec21854c64736f6c63430006000033",
  "source": "pragma solidity ^0.6.0;\n\n//Campaign contract \n\ncontract Campaign {\n    \n    /////////////\n    //Variables//\n    ////////////\n    address public campaignOwner;\n    uint public minimumContribution;\n    mapping(address => bool) public contributors;\n    uint public contributorCount;\n    uint public totalContributions;\n    \n    struct Request {\n        string description;\n        uint value;\n        address recepient;\n        uint approvalCount;\n        mapping(address => bool) approvals;\n        bool complete;\n    }\n    \n    Request[] public requests;\n    \n    ///////////////\n    //constructor//\n    //////////////\n    constructor(uint _minimumContribution) public{\n        campaignOwner = msg.sender;\n        minimumContribution = _minimumContribution;\n    }\n    \n    /////////////\n    //modifiers//\n    ////////////\n    modifier checkContribution(){\n        require(msg.value >= minimumContribution, \"Should be greater than or equal to minimumContribution\");\n        _;\n    }\n    \n    modifier restricted(){\n        require(msg.sender == campaignOwner,\"Only Campaign Owner can call the function\");\n        _;\n    }\n    \n    /////////////\n    //functions//\n    ////////////\n    \n    //1. Contribute function to handle contributors//\n    function contribute() public payable checkContribution {\n        contributors[msg.sender] = true;\n        contributorCount++;\n        totalContributions +=msg.value;\n    }\n    \n    //2. Create Request \n    function createRequest(string memory _description, uint _value, address _recepient) public restricted{\n        require(_value <= totalContributions, \"Should not be able send more than total amount of contributions\");\n        Request memory newRequest = Request({\n            description: _description,\n            value:_value,\n            recepient: _recepient,\n            approvalCount: 0,\n            complete:false\n        });\n        \n        requests.push(newRequest);\n    }\n    \n    //3. Approve request voting mechanism \n    function approveRequest(uint _index) public {\n        require(contributors[msg.sender],\"Should be called by contributors only\");\n        require(!requests[_index].approvals[msg.sender], \"Cannot approve more than once\");\n        \n        requests[_index].approvals[msg.sender] = true;\n        requests[_index].approvalCount++;\n    }\n    \n    //4. finalise the request\n    function finalizeRequest(uint _index) public restricted{\n        require(!requests[_index].complete, \"Should not be completed\");\n        require(requests[_index].approvalCount > (contributorCount /2 ), \"Should be greater than 50%\");\n        totalContributions -= requests[_index].value;\n        payable(requests[_index].recepient).transfer(requests[_index].value);\n        requests[_index].complete = true;\n    }\n    \n    \n}",
  "sourcePath": "/home/biryani/Desktop/consensolabs/learning/Kickstarter-Dapp/contracts/Campaign.sol",
  "compiler": {
    "name": "solc",
    "version": "0.6.0+commit.26b70077.Emscripten.clang"
  },
  "schemaVersion": "3.2.0",
  "updatedAt": "2020-06-12T06:24:22.730Z",
  "networkType": "ethereum",
  "devdoc": {
    "methods": {}
  },
  "userdoc": {
    "methods": {
      "constructor": "///////////",
      "contribute()": {
        "notice": "/////////"
      }
    }
  }
}